:100000000C946D000C9495000C9495000C94950044
:100010000C9495000C9495000C9495000C9495000C
:100020000C9495000C9495000C9495000C949500FC
:100030000C9495000C9495000C9495000C949500EC
:100040000C94800A0C9495000C94F00A0C94CA0A43
:100050000C9495000C9495000C9495000C949500CC
:100060000C94220B0C94950031313A33323A3331EF
:1000700000417072202037203230323600000000FC
:1000800000240027002A0000000000250028002B83
:100090000000000008000201000003040700000047
:1000A00000000000000000000023002600290004DA
:1000B000040404040404040202020202020303030F
:1000C0000303030102040810204080010204081009
:1000D00020010204081020004E0C11241FBECFEF97
:1000E000D8E0DEBFCDBF23E0A4EEB1E001C01D9299
:1000F000A538B207E1F711E0A0E0B1E0E8ECF7E2E3
:1001000002C005900D92A43EB107D9F710E0CDE6EC
:10011000D0E004C02197FE010E94B712CC36D1076F
:10012000C9F70E94B50C0C94E2130C9400000895DA
:100130000895CF92DF92EF92FF92CF93DF93B09129
:100140006903A0E08111AB2F80916A0390E0880FD2
:10015000991FAC014B555F4FC0906F03D090700357
:10016000E0907103F090720330E020E0FA01C59155
:10017000D491E881B90190E080E0EB23EA130AC052
:100180002F5F3F4F6C157D058E059F0578F36FEF50
:100190007FEFCB01DF91CF91FF90EF90DF90CF9079
:1001A0000895833081F028F4813099F08230A9F0ED
:1001B00008958730A9F08830C9F08430B1F4809177
:1001C00080008F7D03C0809180008F7780938000B6
:1001D000089584B58F7784BD089584B58F7DFBCF56
:1001E0008091B0008F778093B00008958091B00027
:1001F0008F7DF9CF1F93CF93DF93282F30E0F90144
:10020000EF56FF4F8491F901ED53FF4FD491F9015F
:10021000E155FF4FC491CC23A9F0162F81110E9404
:10022000D100EC2FF0E0EE0FFF1FE957FF4FA59133
:10023000B4918FB7F894EC91111108C0D095DE23DA
:10024000DC938FBFDF91CF911F910895DE2BF8CF04
:10025000CF93DF9390E0FC01ED53FF4F2491815544
:100260009F4FFC0184918823C9F090E0880F991F6B
:10027000FC01E358FF4FA591B491FC01E957FF4FF2
:10028000C591D49161110DC09FB7F8948C912095C0
:1002900082238C938881282328839FBFDF91CF916D
:1002A0000895623051F49FB7F8943C91822F809565
:1002B00083238C93E8812E2BEFCF8FB7F894EC91AA
:1002C0002E2B2C938FBFEACF3FB7F89480913F023B
:1002D00090914002A0914102B091420226B5A89BA4
:1002E00005C02F3F19F00196A11DB11D3FBFBA2FC8
:1002F000A92F982F8827BC01CD01620F711D811D88
:10030000911D42E0660F771F881F991F4A95D1F70C
:1003100008958F929F92AF92BF92CF92DF92EF9209
:10032000FF924B015C010E9464016B017C010E9401
:1003300064016C197D098E099F09683E734081052F
:100340009105A8F321E0821A9108A108B10888EE6E
:10035000C80E83E0D81EE11CF11C81149104A10495
:10036000B10429F7FF90EF90DF90CF90BF90AF904E
:100370009F908F9008952FB7F89460913B027091F1
:100380003C0280913D0290913E022FBF0895CF9292
:10039000DF92EF92FF920F931F93CF93DF93CDB72E
:1003A000DEB7C054D1400FB6F894DEBF0FBECDBF4C
:1003B0000E94BB0100916B0310916C0320916D03AF
:1003C00030916E036B017C01C01AD10AE20AF30A74
:1003D00097018601003D17402105310590F4809179
:1003E0007303C05CDE4F0FB6F894DEBF0FBECDBF07
:1003F000DF91CF911F910F91FF90EF90DF90CF9001
:10040000089560936B0370936C0380936D039093D6
:100410006E031092660310926503109264031092AB
:1004200063031092620362E0809167030E942801D7
:1004300061E070E080E090E00E94890161E08091DD
:1004400067030E94280160E0809167030E94FA0020
:10045000809168038551823020F58BE291E101970C
:10046000F1F762E0809167030E9428018091740394
:1004700090E08230910538F0880F991F880F991FFE
:1004800005970197F1F7F89480E00E9499006F3F7B
:100490007F4F8F4F9F4F61F410927303789480E0E9
:1004A000A0CF64E170E080E090E00E948901D9CFA4
:1004B00081E00E9499006F3F7F4F8F4F9F4F61F304
:1004C0008E010F5F1F4F6E012FEBC21A2EEFD20A63
:1004D000780180E00E949900F70160837183828334
:1004E000938381E00E949900F7016483758386837A
:1004F0009783F8E0EF0EF11CEC14FD0451F77894AB
:1005000030E020E0F801C080D180E280F3804481B7
:10051000558166817781FFEFCF16DF06EF06FF0674
:1005200031F04F3F8FEF58076807780719F41092A2
:100530007303B5CFF90183E0F595E7958A95E1F767
:10054000EE59FC4F8081880FC416D506E606F706E3
:1005500010F180832F5F3F4F085F1F4F2832310516
:1005600089F6409166032091620380916303280F0E
:100570003327331F80916403280F311D8091650359
:10058000820F932F911D99274817190681F681E054
:100590008093730326CF8160DCCFAF92BF92CF925E
:1005A000DF92EF92FF920F931F93CF93DF936C0133
:1005B0007B018B01040F151FEB015E01AE18BF0814
:1005C000C017D10759F06991D601ED91FC910190C6
:1005D000F081E02DC6010995892B79F7C501DF91DE
:1005E000CF911F910F91FF90EF90DF90CF90BF9030
:1005F000AF900895FC01538D448D252F30E0842F5A
:1006000090E0821B930B541710F0CF96089501973A
:100610000895FC01918D828D981761F0A28DAE0F27
:10062000BF2FB11D5D968C91928D9F5F9F73928FAE
:1006300090E008958FEF9FEF0895FC01918D828DDA
:10064000981731F0828DE80FF11D858D90E00895A7
:100650008FEF9FEF0895FC01918D228D892F90E0FF
:10066000805C9F4F821B91098F739927089589EBB6
:1006700092E00E942B0321E0892B09F420E0822FD5
:10068000089580E090E0892B29F00E9437038111C2
:100690000C9400000895FC01A48DA80FB92FB11D82
:1006A000A35ABF4F2C91848D90E001968F739927A8
:1006B000848FA689B7892C93A089B1898C91837086
:1006C00080648C93938D848D981306C00288F3897F
:1006D000E02D80818F7D80830895EF92FF920F93AC
:1006E0001F93CF93DF93EC0181E0888F9B8D8C8DDE
:1006F00098131AC0E889F989808185FF15C09FB7D2
:10070000F894EE89FF896083E889F9898081837094
:10071000806480839FBF81E090E0DF91CF911F9143
:100720000F91FF90EF900895F62E0B8D10E00F5F64
:100730001F4F0F731127E02E8C8D8E110CC00FB63A
:1007400007FCFACFE889F989808185FFF5CFCE01D2
:100750000E944B03F1CFEB8DEC0FFD2FF11DE35AFF
:10076000FF4FF0829FB7F8940B8FEA89FB89808155
:100770008062CFCFCF93DF93EC01888D8823B9F0CF
:10078000AA89BB89E889F9898C9185FD03C080819C
:1007900086FD0DC00FB607FCF7CF8C9185FFF2CF19
:1007A000808185FFEDCFCE010E944B03E9CFDF9121
:1007B000CF910895089520910502260F3327331F06
:1007C00021323105ECF420918F02FC0190E080E0B1
:1007D000243069F082E00895A09105022191AC01D6
:1007E0004B515E4FA40FB52FB11D2C930196861768
:1007F00098F380910502680F6093050280E00895E8
:1008000081E0089510928F0281E080938E02109211
:10081000690261E082E10E94FA0061E083E10E94E6
:10082000FA00E9EBF0E080818E7F808380818D7F0C
:10083000808388E48093B80085E48093BC000895A9
:100840001092480210924702109296021092B8023B
:100850000E94020487E990E090934602809345024B
:1008600088E990E090934402809343020895CF93E7
:10087000DF9391E09093E4018823B9F0C091B80030
:10088000D091BA008091BC008A7B8093BC0060E06C
:1008900082E10E94FA0060E083E10E94FA000E9477
:1008A0000204D093BA00C093B800DF91CF910895AD
:1008B0008F929F92AF92BF92CF92DF92EF92FF9270
:1008C0000F931F93CF93DF93D091B802D13208F0EA
:1008D000D7C0182FC091B7020E9464016B017C0140
:1008E00080918F0281116BC082E080938F02109300
:1008F0008E028FEF80938D0210928C02D0938B0228
:10090000A7E9B2E0EBE6F2E080E0D81391C01092E4
:100910006A0280916A02CC0FC82BC0936A02809150
:100920006902813009F088C0109269020E94640156
:100930006B017C0180916A028093BB0080919102DF
:1009400090919202A0919302B0919402892B8A2BEC
:100950008B2BA1F00E9464010091910210919202F0
:1009600020919302309194026C197D098E099F09A0
:10097000061717072807390708F442C08091BC0002
:1009800083FDD8CF85EC8093BC000E9464016B018D
:100990007C0180918F02823009F450C080918D02D9
:1009A0008F3F09F46FC080918D02803209F46CC0D2
:1009B00080918D02803309F469C084E026C0809163
:1009C000910290919202A0919302B0919402892B8E
:1009D0008A2B8B2B09F484CF0E94640180909102B2
:1009E00090909202A0909302B09094026C197D09AD
:1009F0008E099F0986169706A806B90608F070CFDB
:100A0000809190020E94370485E010929602109225
:100A1000B80210929502DF91CF911F910F91FF9034
:100A2000EF90DF90CF90BF90AF909F908F90089500
:100A30009D9191938F5F69CF85EEA5CF80919102B3
:100A400090919202A0919302B0919402892B8A2BEB
:100A50008B2B09F49ECF0E946401009191021091AA
:100A6000920220919302309194026C197D098E09B3
:100A70009F09061717072807390708F08ACFC0CF44
:100A800081E0C3CF80E0C1CF82E0BFCF83E0BDCFA4
:100A90001F93CF93DF93EA01122FDC0111968D9102
:100AA0009C91DC01ED91FC910280F381E02D099590
:100AB000C817D90729F4812F0E94580491E08111A9
:100AC00090E0892FDF91CF911F910895CF93DF930D
:100AD000EC018B818823A1F0888191E090939502AD
:100AE0008093B702109296021092B80281E00E94A1
:100AF000580491E0811190E0892FDF91CF91089502
:100B00000E94200481E08B83CE010E946605982F0D
:100B10008111E2CFF1CF0895E09148028091470220
:100B2000E81730F4F0E0E75BFD4F808190E0089536
:100B30008FEF9FEF089590914802809147022FEF29
:100B40003FEF981748F4E92FF0E0E75BFD4F208175
:100B500030E09F5F90934802C90108958091470259
:100B600090914802891B990B0895CF92DF92EF92E2
:100B7000FF920F931F93CF93DF937C01CB018A01E8
:100B800020919502222389F0EB016B01C40ED51E42
:100B9000CC15DD0569F06991D701ED91FC910190CB
:100BA000F081E02DC7010995F3CF642F0E94DB038C
:100BB000C801DF91CF911F910F91FF90EF90DF90CF
:100BC000CF900895CF93DF931F92CDB7DEB769839F
:100BD000209195022223F9F02091B802203258F09A
:100BE00021E030E0FC013383228390E080E00F902D
:100BF000DF91CF91089580919602E82FF0E0E956B9
:100C0000FD4F998190838F5F809396028093B80205
:100C100081E090E0ECCF61E0CE0101960E94DB0321
:100C2000F7CFFC01248131E0309395022093B70285
:100C3000109296021092B8028385682B86E593E0A5
:100C40000E94E20581E00C94580490E080E0089551
:100C5000FC0101900020E9F73197AF01481B590BC7
:100C6000BC0185E793E00C94CD028F929F92AF92E6
:100C7000BF920F931F93CF93DF93CDB7DEB7A197AA
:100C80000FB6F894DEBF0FBECDBF19A2423008F4F4
:100C90004AE08E010F5D1F4F842E912CB12CA12CA8
:100CA000A50194010E949512E62FB901CA01EA300C
:100CB000F4F4E05DD801EE938D01232B242B252B3A
:100CC00079F790E080E0109719F0CD010E94280696
:100CD000A1960FB6F894DEBF0FBECDBFDF91CF91C6
:100CE0001F910F91BF90AF909F908F900895E95CF6
:100CF000E1CF0C9428062F923F924F925F926F9211
:100D00007F928F929F92AF92BF92CF92DF92EF929B
:100D1000FF920F931F93CF93DF935C011B016A0136
:100D2000F12CE12CD50114968D919C9186010E1920
:100D30001F098017910708F48C01F501D0810E94EA
:100D400064012B013C0180918F02811172C0C02F80
:100D5000013208F0C0E2F1E0F0938F0221E0C60119
:100D6000801B910BE816F90608F420E020938E0210
:100D70008FEF80938D0210928C028C0F80938B02E8
:100D8000A1E0A0936A0280916A02DD0FD82BD09374
:100D90006A0280916902813009F090C01092690264
:100DA0000E9464012B013C0180916A028093BB0088
:100DB0008091910290919202A0919302B09194023D
:100DC000892B8A2B8B2BA1F00E9464012091910228
:100DD00030919202409193025091940264197509E6
:100DE00086099709261737074807590708F442C0AC
:100DF0008091BC0083FDD8CFB5ECB093BC000E94BD
:100E000064012B013C0180918F02813009F45AC0AA
:100E100080918C028C1710F4C0918C02ABE6B2E08A
:100E2000E9E4F2E080E08C1751F19D9191938F5F9E
:100E3000FACF8091910290919202A0919302B09189
:100E40009402892B8A2B8B2B09F47DCF0E9464019D
:100E5000209191023091920240919302509194021C
:100E6000641975098609970926173707480759072E
:100E700008F069CF809190020E943704C0E0109280
:100E80004802C0934702C017110609F057C041013C
:100E90008E0C9F1CE401CE018819990980179107D7
:100EA00098F5D50111968D919C91DC01ED91FC9105
:100EB0000284F385E02D09958993EDCFE5EEE0936B
:100EC000BC009DCF8091910290919202A0919302DB
:100ED000B0919402892B8A2B8B2B09F494CF0E941A
:100EE00064012091910230919202409193025091BD
:100EF0009402641975098609970926173707480768
:100F0000590708F080CFB6CFE00EF11EEC14FD04B7
:100F100008F408CF81E0DF91CF911F910F91FF90EE
:100F2000EF90DF90CF90BF90AF909F908F907F9089
:100F30006F905F904F903F902F90089580E0EBCF9F
:100F4000682F70E090E080E04AE00C9435060F9343
:100F50001F93CF938C01C62F0E9411066C2F6460E3
:100F6000C8010E9411066C2F6B7FC8010E941106F8
:100F700083EC90E00197F1F7CF911F910F910895C5
:100F80000F931F93CF93DF938C01D62FC42F607FD5
:100F9000642B0E94A70780E1D89FB00111246C2B1D
:100FA000C801DF91CF911F910F910C94A70740E0EA
:100FB00061E085E793E00E94C0078BE39FE1019722
:100FC000F1F70895CF93DF93CDB7DEB728970FB62B
:100FD000F894DEBF0FBECDBF98E0E8E0F1E0DE019F
:100FE000119601900D929A95E1F790917D039817D3
:100FF00008F48FEF90E0880F991F21E030E02C0F6C
:101000003D1F820F931FFC016081606840E085E70F
:1010100093E028960FB6F894DEBF0FBECDBFDF91E8
:10102000CF910C94C00741E00E94C00781E090E09E
:1010300008958F929F92AF92BF92CF92DF92EF92DC
:10104000FF92CF93DF936B017C01AC019B010E9467
:101050008412882371F080E491E0DF91CF91FF90BA
:10106000EF90DF90CF90BF90AF909F908F900C94B7
:10107000280646015701E894B7F82FEF3FEF4FE7F6
:101080005FE7C501B4010E94841281110DC02FEFEA
:101090003FEF4FE75FE7C501B4010E94BF1018168C
:1010A0001CF484E491E0D9CF2FEF3FEF4FE75FE4EA
:1010B000C701B6010E947F1218161CF488E491E063
:1010C000CCCF2FEF3FEF4FE75FECC701B6010E9497
:1010D000BF1087FDF3CF20E030E0A901C701B601C2
:1010E0000E94BF10D0E0C0E087FF0CC041E06DE27D
:1010F00085E793E00E94C007F7FAF094F7F8F094C0
:10110000C1E0D0E02DEC3CEC4CE45DE3C701B6015E
:101110000E94E4114B015C010E9450126B017C01A2
:101120000E94C4109B01AC01C501B4010E94E311EF
:101130004B015C014AE0C701B6010E943506C80FA9
:10114000D91F41E06EE285E793E00E94C007219637
:1011500020E030E040E251E4C501B4010E942511D5
:101160000E94501290E080E04AE00E9435068C0F09
:101170009D1FDF91CF91FF90EF90DF90CF90BF90B8
:10118000AF909F908F900895BF92CF92DF92EF9291
:10119000FF920F931F93CF93DF9300D000D000D026
:1011A0001F92CDB7DEB71982009128021091290253
:1011B000F80184819581892BE9F0808191E09093F9
:1011C00095028093B702109296021092B80220E026
:1011D00041E050E0BE016F5F7F4FC8010E944805AB
:1011E000882341F047E050E0BE016F5F7F4FC801A8
:1011F0000E947B060981FA80CB804D81BE80DF8012
:1012000080910001909101018130910509F054C055
:1012100080E00E94E2078CE491E00E94790681E080
:101220000E94E20760913202709133028091340291
:10123000909135020E94190841E06FED85E793E037
:101240000E94C00780E691E00E947906C0903202B9
:10125000D0903302E0903402F090350220E030E08C
:1012600040E052E4C701B6010E947F121816A4F4B0
:1012700083E691E00E94790627960FB6F894DEBFC8
:101280000FBECDBFDF91CF911F910F91FF90EF90D7
:10129000DF90CF90BF90089520E030E040EA51E425
:1012A000C701B6010E94BF1087FF03C08BE691E023
:1012B000E1CF84E791E0DECF82309105E9F580E06F
:1012C0000E94E2078EE791E00E94790681E00E9489
:1012D000E20760912E0270912F028091300290916E
:1012E00031020E9419088CE891E00E947906C090B2
:1012F0002E02D0902F02E0903002F090310220E0D8
:1013000030E042E852E4C701B6010E947F1218168D
:101310001CF480E991E0AECF20E030E040E252E4FE
:10132000C701B6010E94BF1087FF03C087E991E0A3
:10133000A1CF83EA91E09ECF039709F09DCF242FA0
:1013400030E064E0359527956A95E1F7822F880FA4
:10135000880F122F181B110F140F80E00E94E20754
:101360008EEA91E00E9479061A3020F485EB91E034
:101370000E9479062B2D30E054E0359527955A953B
:10138000E1F7822F880F880FE22EE81AEE0CEB0CA3
:10139000812F0E94A00787EB91E00E947906F9E077
:1013A000FE1520F085EB91E00E9479068C2D90E0EF
:1013B00034E0959587953A95E1F7982F990F990F15
:1013C000182F191B110F1C0D8E2D0E94A00787EBE3
:1013D00091E00E9479062D2D30E044E03595279567
:1013E0004A95E1F7822F880F880F622F681B660FDE
:1013F0006D0D70E06053784F90E080E04AE00E940D
:10140000350681E00E94E20789EB91E00E947906AF
:101410001A3020F485EB91E00E9479068F2D90E040
:1014200024E0959587952A95E1F7982F990F990FC4
:10143000891B880FF80E812F0E94A00781EC91E094
:101440000E94790689E08F1520F085EB91E00E94DB
:1014500079060F77202F30E084E0359527958A951F
:10146000E1F7822F880F880F281B220F020F8F2D84
:101470000E94A00781EC91E00E9479060A3020F4D6
:1014800085EB91E00E947906802F0E94A007F4CEA0
:1014900085ED8093BC008091910290919202A09181
:1014A0009302B09194020796A11DB11D23E0B69559
:1014B000A795979587952A95D1F72091BC0024FD93
:1014C00003C010928F0208954091910250919202B0
:1014D0006091930270919402452B462B472B69F340
:1014E0000097A105B10541F02AE22A95F1F700C065
:1014F0000197A109B109E1CF809190020C943704C2
:101500001F920F920FB60F9211242F933F938F9338
:101510009F93AF93BF9380913B0290913C02A09127
:101520003D02B0913E0230913A0223E0230F2D3765
:1015300058F50196A11DB11D20933A0280933B02FC
:1015400090933C02A0933D02B0933E0280913F02F3
:1015500090914002A0914102B09142020196A11DDA
:10156000B11D80933F0290934002A0934102B0933B
:101570004202BF91AF919F918F913F912F910F9018
:101580000FBE0F901F90189526E8230F0296A11DFD
:10159000B11DD2CF1F920F920FB60F9211242F932D
:1015A0003F934F935F936F937F938F939F93AF93EB
:1015B000BF93EF93FF9389EB92E00E944B03FF915F
:1015C000EF91BF91AF919F918F917F916F915F91BB
:1015D0004F913F912F910F900FBE0F901F90189534
:1015E0001F920F920FB60F9211242F938F939F93F8
:1015F000EF93FF93E091C902F091CA028081E091DC
:10160000CF02F091D00282FD1BC090818091D20266
:101610008F5F8F732091D302821741F0E091D20245
:10162000F0E0E754FD4F958F8093D202FF91EF9148
:101630009F918F912F910F900FBE0F901F90189533
:101640008081F4CF1F920F920FB60F9211242F9327
:101650003F934F935F936F937F938F939F93AF933A
:10166000BF93EF93FF938091B900887F803609F490
:101670004AC0F0F5883209F4A7C018F5803109F4A2
:101680009BC0B8F4882309F4F9C0883009F494C0E9
:10169000FF91EF91BF91AF919F918F917F916F914A
:1016A0005F914F913F912F910F900FBE0F901F9020
:1016B0001895883109F488C0803251F780938D02E3
:1016C00014C0803409F49DC040F48033B9F38833EA
:1016D000F9F680938D0285ECB0C0803509F485C0A1
:1016E000883509F496C0883499F60E94480AD0CF0C
:1016F000883909F48CC038F5883729F050F48836D9
:1017000011F0803729F683E080938F021092270230
:1017100057C0883809F47BC0803919F0803809F047
:10172000B7CF80912702803208F071C0E091270284
:1017300081E08E0F809327028091BB00F0E0E95F8B
:10174000FD4F80833DC0803B39F0E0F4803A09F4DE
:1017500079C0883A09F09CCF84E080938F02109280
:10176000060210920502E0914502F09146020995A9
:101770008091050281110FC081E0809305021092D3
:10178000E50109C0803C09F4A6CF883C09F4A3CF49
:10179000883B09F07DCFE091060281E08E0F8093B7
:1017A0000602F0E0EB51FE4F80818093BB009091E8
:1017B00006028091050229C080916A028093BB00D5
:1017C00085EC8093BC0064CF90918C0280918B0259
:1017D000981758F5E0918C0281E08E0F80938C026F
:1017E000F0E0E559FD4F8081E9CFE0918C0281E086
:1017F0008E0F80938C028091BB00F0E0E559FD4F85
:10180000808390918C0280918B029817C8F285E8B2
:10181000D8CFE0918C0281E08E0F80938C02809172
:10182000BB00F0E0E559FD4F808380918E0281116D
:101830005CCF81E08093690284EA8093BC001092BF
:101840008F0226CF85EC8093BC0010928F0280918E
:101850002702803230F4E0912702F0E0E95FFD4F8B
:1018600010826091270270E0E0914302F0914402FF
:1018700087E092E00995109227020ACF10928D021C
:1018800034CFFC01908190539A3008F090E0818130
:1018900080532AE0929F800D11240895E9EBF2E035
:1018A0001382128288EE93E0A0E0B0E084839583F7
:1018B000A683B78324E131E03183208325EC30E037
:1018C0003587248724EC30E03787268720EC30E00A
:1018D000318B208B21EC30E0338B228B22EC30E0FB
:1018E000358B248B26EC30E0378B268B118E128EB5
:1018F000138E148EE6E5F3E01382128284839583BF
:10190000A683B78386E291E091838083E5E7F3E0E5
:101910001382128288E391E09183808387E284833B
:1019200080E1818782E082871386A2E6B3E08BE0C4
:1019300015968C93159716968C931697EEECF0E00F
:10194000E4911796EC931797EAEBF0E0E491189680
:10195000EC93189740E85EE360E070E01D964D93CD
:101960005D936D937C9350970895CF93DF93CDB79C
:10197000DEB72C970FB6F894DEBF0FBECDBF7894BC
:1019800084B5826084BD84B5816084BD85B5826084
:1019900085BD85B5816085BD80916E008160809335
:1019A0006E0010928100809181008260809381009E
:1019B00080918100816080938100809180008160AE
:1019C000809380008091B10084608093B100809109
:1019D000B00081608093B00080917A008460809331
:1019E0007A0080917A00826080937A0080917A00F8
:1019F000816080937A0080917A00806880937A0079
:101A00001092C100E091C902F091CA0282E0808385
:101A1000E091C502F091C6021082E091C702F091F8
:101A2000C80280E180831092D102E091CD02F09152
:101A3000CE0286E08083E091CB02F091CC028081DF
:101A400080618083E091CB02F091CC02808188603C
:101A50008083E091CB02F091CC028081806880830A
:101A6000E091CB02F091CC0280818F7D80830E9437
:101A7000200410927A0380917F03823018F098E05E
:101A800090937A0380937D0362E370E080E090E0BE
:101A90000E9489016091800385E793E00E9411060E
:101AA00068EE73E080E090E00E94890160E385E7E2
:101AB00093E00E94A7077BE4E72E76E4F72EC701A8
:101AC0000197F1F760E385E793E00E94A707C7015C
:101AD0000197F1F760E385E793E00E94A70783E5AC
:101AE00092E00197F1F760E285E793E00E94A70793
:101AF00060917A03606240E085E793E00E94C0074E
:101B000084E080937B0340E06CE085E793E00E94F3
:101B1000C0070E94D70782E080937C0340E066E024
:101B200085E793E00E94C00740E062E085E793E02C
:101B30000E94C0078BE39FE10197F1F788E0809353
:101B4000800360E085E793E00E9411060E94200474
:101B500062E0809167030E9428010E94BB01605DE2
:101B600077408109910960936B0370936C038093B4
:101B70006D0390936E0387E3809374038091280232
:101B800090912902009711F00E94591386E090E08D
:101B90000E94BD127C0188E6F701808386E593E010
:101BA00092838183138280E290E095838483F09214
:101BB0002902E09228020E94200401E0F701038339
:101BC000C7010E946605382E81110EC080E00E9478
:101BD000E20783EC91E00E94790660ED77E080E017
:101BE00090E00E948901FFCF1C868091280290918D
:101BF0002902FC0124813581232B89F02081009367
:101C000095022093B702109296021092B80221E03A
:101C100041E050E0BE01645F7F4F0E94480541E013
:101C200050E0CE0101967C01BC0180912802909188
:101C300029020E947B06898190E0880F892F881FE6
:101C4000990B892B09F4A4C04BE050E061E770E0E8
:101C5000C7010E94B610CE010A960E94410C082FBF
:101C6000E981E154E33118F50E2E000CFF0BE55C21
:101C7000F14F0C94B712480F570E570E5C0F570ECA
:101C80005E0F570E570E570E4E0E570E570E4F0F34
:101C90005A0F580F570E570E570E560F8A8111E0E4
:101CA000813629F08B8116E08E3609F017E0CE01DF
:101CB00005960E94410CD82E48E050E068E670E09E
:101CC000C7010E94B610C7010E94410CC82ECE0168
:101CD00004960E94410CB82ECE0107960E94410C3A
:101CE000382F86E0F70111928A95E9F72AE0832FD1
:101CF000622F0E948912982F880F890F880F830FF7
:101D00008A838B2D0E948912982F880F890F880F44
:101D10008B0D8B838C2D0E948912982F880F890F31
:101D2000880F8C0D8C838D2D0E948912982F880F1F
:101D3000890F880F8D0D8E83812F0E948912982F15
:101D4000990F890F880F180F1F83802F0E94891207
:101D5000982F880F890F880F800F8887809128021D
:101D600090912902FC01248135812830310580F0D1
:101D7000208131E0309395022093B70210929602B1
:101D80001092B80221E048E050E0B7010E944805F7
:101D900061E088E00E94280161E087E00E9428015C
:101DA00061E086E00E94280160E08CE00E9428014A
:101DB00080E00E94E20784ED91E00E94790660EDE8
:101DC00077E080E090E00E9489010E94D7070BEB4A
:101DD00010E02224239440E0A42E40E0B42E882476
:101DE0008394912CEDE9F0E08491EFECF0E0F49035
:101DF000F801E490EE2029F181110E94D100EE2D2E
:101E0000F0E0EE0FFF1FEB55FF4FA591B4918C91C1
:101E1000F822B9F08091000190910101019684307F
:101E200091050CF04DC090930101809300010E9438
:101E3000D7070E94C4086CE271E080E090E00E9445
:101E400089010E94BB01C0903602D0903702E09019
:101E50003802F09039026C197D098E099F09613DA5
:101E600077408105910508F447C10E94C701882386
:101E700041F0809168038C3009F487C030F58B30D5
:101E8000E9F1C12CD12C90ECE92E9FE7F92E60C02E
:101E90008B8114E0823709F40ACF18E008CF8B81D8
:101EA00013E0823709F403CF15E001CF19E0FFCE2C
:101EB0001AE0FDCE1BE0FBCE1CE0F9CE12E0F7CE1F
:101EC0009092010180920001B2CF85518230C8F614
:101ED00070906403672D70E0762F662766277F7702
:101EE00080916503682B90E080E00E94C4102DEC87
:101EF0003CEC4CEC5DE30E94251163C060916403EF
:101F000070E090E080E00E94C4106B017C01709052
:101F1000650377FE0AC0AC019B0160E070E080E8D9
:101F20009FEB0E94E3116B017C01672D6F7070E0E5
:101F300090E080E00E94C6102DEC3CEC4CEC5DE3A0
:101F40000E942511A70196010E94E4116B017C01FA
:101F5000C0923202D0923302E0923402F092350203
:101F60000E94C701882351F0809168038B3030F0C4
:101F70008D3080F18551823008F490C0412C512C75
:101F800080EC682E8FE7782E43C070906403672D35
:101F900070E090E080E00E94C4106B017C016091D1
:101FA00065036F7070E090E080E00E94C6102DEC39
:101FB0003CEC4CEC5DE30E942511A70196010E94C8
:101FC000E4116B017C0177FEC3CFF7FAF094F7F8C8
:101FD000F094BECF6091630370E090E080E00E94D7
:101FE000C6102DEC3CEC4CEC5DE30E9425112B015E
:101FF0003C016091620370E090E080E00E94C610B6
:102000009B01AC01C301B2010E94E4112B013C0110
:1020100040922E0250922F02609230027092310252
:102020000E94BB016093360270933702809338029E
:1020300090933902A7019601C701B6010E9484124C
:1020400081115AC0A3019201C301B2010E948412FE
:10205000811152C020E030E040EA51E4C701B601EE
:102060000E94BF1087FD73C020E030E040E052E4E2
:10207000C701B6010E947F1218160CF468C020E058
:1020800030E040E252E4C301B2010E94BF10E12CF3
:1020900087FF16C0F32CE12C60E020C06091620342
:1020A0007091630376276727762790E080E00E948F
:1020B000C4102DEC3CEC4CEC5DE30E942511A6CF46
:1020C000FF24F39420E030E042E852E4C301B2017F
:1020D0000E947F1218160CF0F12C6E2D87E00E94E2
:1020E000FA006F2D88E00E94FA006F2D6225E11042
:1020F00060E086E00E94FA000E94BB01C0902A02C4
:10210000D0902B02E0902C02F0902D026C197D09EA
:102110008E099F09693E73408105910560F00E9418
:10212000BB0160932A0270932B0280932C02909340
:102130002D020E94C408A114B10409F453CE0E94D8
:102140003703882309F44ECE0E9400004BCE20E0D6
:1021500030E040E252E4C301B2010E94BF10E32C20
:1021600087FFAECFF32CE32C61E0B8CFFB01DC019D
:1021700002C005900D9241505040D8F708950E943A
:10218000011108F481E00895E89409C097FB3EF43A
:1021900090958095709561957F4F8F4F9F4F9923B4
:1021A000A9F0F92F96E9BB279395F6958795779532
:1021B0006795B795F111F8CFFAF4BB0F11F460FFF2
:1021C0001BC06F5F7F4F8F4F9F4F16C0882311F04A
:1021D00096E911C0772321F09EE8872F762F05C05E
:1021E000662371F096E8862F70E060E02AF09A95F9
:1021F000660F771F881FDAF7880F9695879597F9EE
:102200000895990F0008550FAA0BE0E8FEEF161687
:102210001706E807F907C0F012161306E407F507DA
:1022200098F0621B730B840B950B39F40A2661F04E
:10223000232B242B252B21F408950A2609F4A140F1
:10224000A6958FEF811D811D08950E9438110C9471
:10225000A9110E949B1138F00E94A21120F0952331
:1022600011F00C9492110C94981111240C94DD111E
:102270000E94BA1170F3959FC1F3950F50E0551F5E
:10228000629FF001729FBB27F00DB11D639FAA27CB
:10229000F00DB11DAA1F649F6627B00DA11D661F1A
:1022A000829F2227B00DA11D621F739FB00DA11D3B
:1022B000621F839FA00D611D221F749F3327A00DF5
:1022C000611D231F849F600D211D822F762F6A2F91
:1022D00011249F5750409AF0F1F088234AF0EE0FF6
:1022E000FF1FBB1F661F771F881F91505040A9F723
:1022F0009E3F510580F00C9492110C94DD115F3FCC
:10230000E4F3983ED4F3869577956795B795F7955E
:10231000E7959F5FC1F7FE2B880F911D96958795D6
:1023200097F9089597F99F6780E870E060E0089555
:102330009FEF80EC089500240A94161617061806DD
:102340000906089500240A941216130614060506B9
:102350000895092E0394000C11F4882352F0BB0F4A
:1023600040F4BF2B11F460FF04C06F5F7F4F8F4FAD
:102370009F4F089557FD9058440F551F59F05F3FE8
:1023800071F04795880F97FB991F61F09F3F79F097
:1023900087950895121613061406551FF2CF469519
:1023A000F1DF08C0161617061806991FF1CF86959B
:1023B0007105610508940895E894BB27662777277F
:1023C000CB0197F908955058BB27AA270E94FB110B
:1023D0000C94A9110E949B1138F00E94A21120F0C8
:1023E00039F49F3F19F426F40C9498110EF4E095FB
:1023F000E7FB0C949211E92F0E94BA1158F3BA1717
:10240000620773078407950720F079F4A6F50C940A
:10241000DC110EF4E0950B2EBA2FA02D0B01B901A3
:1024200090010C01CA01A0011124FF27591B99F04A
:10243000593F50F4503E68F11A16F040A22F232F56
:10244000342F4427585FF3CF469537952795A795A6
:10245000F0405395C9F77EF41F16BA0B620B730B4D
:10246000840BBAF09150A1F0FF0FBB1F661F771FBE
:10247000881FC2F70EC0BA0F621F731F841F48F473
:10248000879577956795B795F7959E3F08F0B0CFFC
:102490009395880F08F09927EE0F979587950895E3
:1024A0000E94C21188F09F5798F0B92F9927B75111
:1024B000B0F0E1F0660F771F881F991F1AF0BA95E8
:1024C000C9F714C0B13091F00E94DC11B1E0089559
:1024D0000C94DC11672F782F8827B85F39F0B93F4B
:1024E000CCF3869577956795B395D9F73EF490959B
:1024F0008095709561957F4F8F4F9F4F08950E94F3
:10250000011108F48FEF08950E940111880B990BB7
:102510000895991B79E004C0991F961708F0961B3F
:10252000881F7A95C9F780950895A1E21A2EAA1BF3
:10253000BB1BFD010DC0AA1FBB1FEE1FFF1FA21773
:10254000B307E407F50720F0A21BB30BE40BF50B70
:10255000661F771F881F991F1A9469F760957095F9
:10256000809590959B01AC01BD01CF010895EE0FC0
:10257000FF1F0590F491E02D09940F931F93CF93C3
:10258000DF938230910510F482E090E0E0918303C4
:10259000F091840330E020E0B0E0A0E0309799F4BF
:1025A0002115310509F44AC0281B390B24303105A7
:1025B000D8F58A819B816115710589F1FB019383AF
:1025C0008283FE0111C0408151810281138148172D
:1025D0005907E0F04817590799F4109761F01296DF
:1025E0000C93129713961C933296CF01DF91CF91E3
:1025F0001F910F9108950093830310938403F4CFE8
:102600002115310551F04217530738F0A901DB01BC
:102610009A01BD01DF01F801C1CFEF01F9CF90931D
:10262000840380938303CDCFFE01E20FF31F8193D8
:1026300091932250310939832883D7CF2091810388
:1026400030918203232B41F4209104013091050144
:102650003093820320938103209102013091030182
:102660002115310541F42DB73EB740910601509137
:102670000701241B350BE0918103F0918203E217DF
:10268000F307A0F42E1B3F0B2817390778F0AC0195
:102690004E5F5F4F2417350748F04E0F5F1F509372
:1026A000820340938103819391939FCFF0E0E0E018
:1026B0009CCFCF93DF930097E9F0FC013297138210
:1026C0001282A0918303B0918403ED0130E020E0F9
:1026D0001097A1F420813181820F931F20918103F3
:1026E000309182032817390709F061C0F093820303
:1026F000E0938103DF91CF910895EA01CE17DF07C0
:10270000E8F54A815B819E0141155105B1F7E90168
:10271000FB83EA8349915991C40FD51FEC17FD073C
:1027200061F4808191810296840F951FE90199835C
:102730008883828193819B838A83F0E0E0E0129614
:102740008D919C9113970097B9F52D913C9111971C
:10275000CD010296820F931F209181033091820355
:102760002817390739F6309751F5109284031092E3
:102770008303B0938203A0938103BCCFD383C2832E
:1027800040815181840F951FC817D90761F44E5FAE
:102790005F4F88819981480F591F518340838A81F7
:1027A0009B81938382832115310509F0B0CFF0938B
:1027B0008403E09383039ECFFD01DC01C0CF13822D
:0827C0001282D7CFF894FFCF7D
:1027C8000100000085038000000040001400540050
:1027D800000000006D03CD02FA02BA032B030903BF
:1027E8001D0300000000E205B50525068B05AE05B2
:1027F8009B058C05000000001308CD022506DA03AE
:102808006E616E00696E66006F76660054454D50C5
:10281800455241545552453A20202020202020007E
:102828004320002028484F542920002028434F4C9B
:10283800442920002028474F4F442920200048558C
:102848004D49444954593A20202020002520200091
:1028580020284452592900202848554D4944292008
:102868002020002028474F4F4429202020004441A1
:1028780054453A200030002F0054494D453A202055
:10288800003A004C6F692052544321202020202018
:10289800202020002020204B484F4920444F4E47FD
:0428A80020202000CC
:00000001FF
